:100000006F00206300000000E2060000E20600002E
:10001000A9BDF9F3E20600000000000000000000A6
:10002000E2060000E2060000000000000000000000
:10003000E206000000000000E206000000000000F0
:10004000E2060000E2060000E2060000E206000010
:10005000E2060000880A0000E2060000000000003E
:10006000E2060000E2060000E2060000E2060000F0
:10007000E2060000E2060000E2060000E2060000E0
:10008000E2060000E2060000E2060000E2060000D0
:1000900083C751D2138781D2BA9703850700828024
:1000A00083C751D2138791D2BA9703C50700118134
:1000B0000589134515008280011122CC37C4004008
:1000C000130404105C582EC632C4F19B3AC293E765
:1000D000170006CE26CA5CD8AA843685E7000061E0
:1000E00013058025E7004054B757550044C4938753
:1000F00057555CC024D03CCC1C44370500FFB706E4
:1001000080009386D632E98FD58F1CC47C4CB245D3
:100110001247E98FD58F7CCCB7C700409387072063
:100120002246ACDF8567938787BBB7D50040B455BF
:10013000139576006345050093861700C1EAB7C79B
:1001400000408946938707106314D708944393F6B9
:10015000F6CFB7C700409387071094C3D4537917DD
:10016000B70500FA3337E000FD15ED8E6607558FB1
:1001700037C40040D8D31304042018488176FD16F4
:10018000758F18C83707020018C4260670D0984328
:10019000B7060001558F98C3D85B719BD8DB8947A0
:1001A0001CC07C50FDFF0145E70040541C408D8B76
:1001B00089CB3C4893F7F78F3CC81C4093E78700F6
:1001C0001CC0F2406244D24405618280FD1785B7AD
:1001D000944393F6F6CF93E60610A5BF011122CC07
:1001E0002A84014526CA2EC606CEB284E7004054B2
:1001F000B7C70040938707209843B2450D8B09CBC2
:10020000B84B1377F78FB8CB98431367870098C321
:10021000B7C700409387072023A207062E85E70073
:10022000006113058015E7004054B7C7004093876D
:1002300007109C43094793F7F7CF6399E40C37C73E
:100240000040130707101CC354539387E4FF37067D
:1002500000FAB337F0007D16E607F18ED58F5CD338
:10026000B7D70040BC4B13F707FE89476393F40AE6
:1002700083A781C1FD8BD98F37D700403CCBB7C74F
:10028000004093870710D84B0946AD46137707FC0B
:100290006393C400B546558FD8CBD84FB70701FF3D
:1002A000938707C07D8F8946B70779009387C70971
:1002B0006396D400B7077F009387070A5D8FB7C79F
:1002C000004093870710D8CF37575500C0C7130792
:1002D0005755D8C3A0D3B8CF9847370600FFB70605
:1002E00080009386D632718F558F98C7F84FF240B1
:1002F0006244718F558FF8CFB7C70040054723A0E0
:10030000E72023AE01C0D2440561828093E7071045
:080310003DB783A741C1B9BF4D
:1003180099C6014863D7B600B685054819A00148B3
:10032800AE868D8EBA873303D700B308F34063498E
:10033800100393C7F6FFFD87FD8EBA968147338673
:10034800F5406343C00293C7F5FFFD87FD8DB69561
:10035800AE873385E5409306A002631408028280C5
:100368008507A38FC7FED1B73306F500834806007B
:100378003386F600850723001601D1B7A38FD7FE71
:10038800FD171386D5FFE30CF6FCE369F7FE8280C0
:10039800B70700E083A707348280397122DC37046D
:1003A80000E0130404341C4006DE26DA4AD84ED690
:1003B80052D456D293F7070C1307000C638BE7004F
:1003C80002CEAE84DDE51C4089C793F7070891E3A8
:1003D800C1378144F25062544259B259225A925A52
:1003E8002685D25421618280FD1789EB1C4093E752
:1003F800070C1CC0F9BFB707100085071840937693
:100408000708FDF2B389244163D33A019D4901C726
:100418002AC6BD3F324578088D473A8663C13705FD
:10042800F247330725012320FA0081478345070057
:100438008507B306F6002380B600050763D53701A4
:100448009386D7FFE5F69387490093E707F8230ECD
:10045800F100F2474E991CC0E34F99F8A5BFB306C7
:10046800F900AA9683C6060085070507A30FD7FEDD
:1004780075B7370A00E001499D4A130A4A34E9BFB3
:10048800411122C406C62E84093FB2402285224467
:100498004101828037F700E01C473E951C47898F51
:1004A800E3CE07FE8280635A05069397F60193D63A
:1004B800F701A5E63305A0400548058A930710060D
:1004C80019C2930710043A86254E938667FFB377BF
:1004D800B5022A83B388D7006364FE0093880703B4
:1004E80023001601930716003355B5026379B3024A
:1004F800630808009306D0022380D70093072600DC
:100508003385E740094623800700B306A7008147E3
:100518003346C50263C7C7008280014879BF3E865B
:100528007DB7B305F70083C8F6FF03C80500FD16BD
:1005380023801501238006018507E9BFB7C700405E
:10054800938707109843B706FDFFFD16758F15C1F1
:10055800B7060200558F98C337D700401C47B70627
:100568003300D58F1CC7B7C7004093870720A8CB97
:100578008280C166558F98C3B7D600409C4637071E
:10058800CEFF7D17F98F9CC6F9BFB7D70040D84377
:100598003166130606F0799BD8C3056713078722CF
:1005A8002A9703470700945F2207329701761306BC
:1005B800F60FF18E558F98DFD8438966938606F437
:1005C80013671700D8C337C700401307072074D331
:1005D80083A60709139666006358060083A60709D1
:1005E80013965600634406007453FDF2B7D70040D3
:1005F80003A5070983A747091375F503A98393F78B
:10060800F707E2075D8D828037D700405C57137586
:10061800F507F59B5CD737C70040130707101C4345
:1006280093F707F8C98F1CC3828097010020938134
:100638002105173100201301619C138541C09705DE
:1006480000209385251A6377B5002320050011053E
:10065800E36DB5FE13050009970500209385059AFB
:1006680017060020130606C263FAC5008322050098
:1006780023A0550011059105E3EAC5FE17150000F2
:100688001305C5BC938541C0138641C0638AC50064
:100698008322050023A0550011059105E3EAC5FE54
:1006A80093070000FD42739002BC8962938282889E
:1006B80073A00230970200009382429493E23200C2
:1006C80073905230B7F700E0054798C38567938762
:1006D80087B7739017347300203001A0AA8703C727
:1006E800070001E73385A74082808507CDBF757174
:1006F80022C526C34AC1CEDED2DCD6DADAD8E2D4A5
:1007080006C7DED6E6D2EAD0EECEAA842EC632845A
:10071800368C0149130A500293090003A54A294B54
:1007280083470400A30FF100C9CB638A470105047E
:10073800324685451305F1018294E28B19A283475D
:10074800140013072400CE8CA30FF1006397370918
:100758003A84814D014701A8B38D6D038347040096
:1007680005040547B69D938607FD13F6F60FE3F5D6
:10077800CAFE19C3A30FF10061476E8D6353B70119
:100788003A8D9306C00601476398D7008347040053
:1007980005470504A30FF1008346F10193074006BE
:1007A800638AF60663EED702930780056387F60A25
:1007B800930730066384F60CA5FEBA402A449A448F
:1007C800F659665AD65A465BB65B265C965C065D59
:1007D800F64D4A850A4949618280930C00028DBF13
:1007E800930750076388F602930780076387F60626
:1007F80093073007E39EF6F2930B4C00032C0C0092
:100808006285E93DAA856358B0093818EA86668684
:1008180062851DA0930B4C0005CB9386B6F8181083
:1008280093B6160003250C000146A945AD393818C2
:10083800EA866686AA850810E13C3246AA85281809
:1008480082942A995E8CE9BD930750071810639427
:10085800F6008546C1BF8146F1B703250C00138613
:1008680086FA1810854613361600C1452D39930BA4
:100878004C00AA853818EA86668675BF83270C005F
:10088800930B4C003818A30FF100EA86668685455D
:100898001305F10155B7324662855DB7397132D417
:1008A8002A862ED236D6814554101305804806CEA6
:1008B8003AD83EDA42DC46DE36C6153DF2402161C2
:1008C80082800111856722CC26CA4AC84EC606CE48
:1008D8000144938987179304000283A5C1C04E85FC
:1008E800B3D5850093F5F50F21044D3FE31794FE2A
:1008F800F2406244D2444249B249056182802A9654
:10090800AA876393C70082802380B7008507D5BF75
:1009180005CE7D160148B307050183C60700B387D6
:10092800050183C707003387F64089CE9336170041
:10093800B337F000F58FB3060641B336D000F58F14
:100948000508F1FB3A85828001458280814763135F
:10095800F60082803387F500834607003307F500E9
:1009680085072300D700E5B7411106C622C426C271
:10097800AA84AD332A84AA8526850534056585456C
:1009880013054522193CB240130514002244924431
:1009980041018280B70700E09387073498439306A4
:1009A800000C1377070C6302D704370710000507FC
:1009B800944313F6060805E69DCA011106CE2AC619
:1009C800C13A3245F240B70700E01375F50F22052A
:1009D8001365550823A0A7340545056182807D1756
:1009E80061FB98431367070C98C301458280137510
:1009F800F50F220513655508B70700E023A0A734B3
:100A080005458280B7170040938707049305700552
:100A18002380B700130680FA2380C7000100010075
:100A2800371700408346A70093E606012305D70041
:100A3800372700408546A303D7808346578093E62F
:100A48000601A302D780238007000100010023804C
:100A5800B7002380C7000100010037170040930644
:100A6800A0042304D7002380070001000100B70772
:100A780000E023A207341307000823A0E73482808C
:100A88005D7122DE37C400401304042026DC3AD20C
:100A980004443ED058441C442ADA86C696C49AC2F6
:100AA8009EC02ED832D636D442CE46CC72CA76C82C
:100AB8007AC67EC4F98F37C700401CC413070710D5
:100AC8005C5B01458588F19B93E717005CDBBD34CF
:100AD8003C4893F7F78F3CC81C4093E787001CC03D
:100AE80081C4054723AEE1C07254B640A6421643FE
:100AF8008643E2545255C2553256A256125782576F
:100B08007248E248524EC24E324FA24F61617300A2
:100B18002030411106C6938501C2B94737C5898E71
:100B2800A380F50005479D479306500241461305EB
:100B380065ED2384F5002387050097F0FF1FE78004
:100B4800604E0565130505180535B7F700E09847A9
:100B5800B24023A8E1C04101828037C5898E05468D
:100B680093055002130565ED17F3FF1F6700C35D7A
:100B7800757106C722C526C34AC1CEDED2DCD6DAD5
:100B8800DAD8DED6E2D4E6D2EAD0EECEA53DB71763
:100B980000409387470B9843FD769386F67F758FC1
:100BA80098C3B71700409387070A984385669386CA
:100BB8000680558F98C3B7F70300984FC04F930727
:100BC80020602390F1C2056B938401C219469305F6
:100BD8008B18398C1385240023A681C0853B0565B5
:100BE800FD5923958400130545194180A3843401D8
:100BF80023968400A38704005531E1312945593BE8
:100C0800B7F700E09C4723A8F1C023A401C011371F
:100C1800A937B7C70040938707201307C008D8CB68
:100C280093066007D4CFD8D3D8DBF8C3F4C713072B
:100C3800C006D8D7D8DF13078007D8C337071600F0
:100C480023AA07043D07D8C7138441D2E0DF23A4B1
:100C58003701B7D900409307004823A4F90283A7B6
:100C680009033707FAFF7D17F98F23A8F90283A72D
:100C7800090337070070B7060002D98F23A8F902C5
:100C880083A7C903370700F97D17F98FD58F23AEDE
:100C9800F90283A7C90337070040FD168E078D8325
:100CA800D98F23AEF90283A789043707F9FF7D1787
:100CB800F98F23A4F90483A709053707070013054B
:100CC800805593F7F78F93E7073023A8F90483A794
:100CD800C905D98F23AEF90483A7C9053707700062
:100CE800D98F23AEF90437070200B7C700409387AE
:100CF80007101307C72098DF13070005D8DFD85B54
:100D0800758FB70600A4558FD8DB9843D146137763
:100D1800F7CF98C3B7E700E0A389D704EFF01F82A5
:100D280083A749007D777D1793F7F7EF23A2F90092
:100D380083A7890213055002F98F23A4F90283A718
:100D4800C90237070200BD9B23A6F90283A78900C1
:100D5800D98F23A4F90083A7490093E7070123A2A9
:100D6800F900EFF09F829379F503135D8501130570
:100D78007002EFF09F812AC0935D85014945EFF02D
:100D8800DF808247137CF503814593F7F703330827
:100D9800FC402A8A935C850113068002281042C011
:100DA800B93EB3898941D146B385D9020248AA8799
:100DB80001473385E700050733D6D502B3853541AA
:100DC80093184600336616012300C500E313D7FEC7
:100DD8000146514393058002B35666023385E70006
:100DE8000507429693984600B3E616012300D500FE
:100DF800E314B7FE814637D5004029468C43138754
:100E080086020A072A970CC385069107E398C6FE4F
:100E1800B3069D4115473387E602B38CBC4102CE29
:100E280002D002D2854719456C083388F50085073A
:100E38003356A702158F9318460033661601230010
:100E4800C800E394A7FE814699482D4633D7160378
:100E58003385F5008507E6961318470033670701C1
:100E68002300E500E394C7FEF246B7D70040138796
:100E7800070834C78256056674C7925634CBD843E0
:100E8800B7060081FD163D9BD8C3D843799BD8C3CC
:100E98009857518F98D7D85713670701D8D7985FB5
:100EA800137707FC3367870198DF985F758FB7065C
:100EB800007F337ADA003367470198DFD843C17679
:100EC800FD1613670710D8C3B84B758FB8CB984772
:100ED800B7062000558F98C7D84793064006136772
:100EE8000701D8C7D843518FD8C337C70040130765
:100EF800072074D3745391C683A6C70993F60610C6
:100F0800F5FAB7D7004013870708584F41667D8B1D
:100F180023AAE1C0B84B518FB8CBB84B03A641C147
:100F2800019B518FB8CB98473706E0FF7D16718F2C
:100F380098C703A741C17946FD4709076365E600DD
:100F480083A741C1890723ACF1C0B7D70040B84F88
:100F5800C176FD16758FB8CF9847C1660145558F84
:100F680098C7D847B706EFFFFD1613670710D8C70D
:100F7800D843B71C00408569758FB7061000558F98
:100F8800D8C3EFF0AFDBB7E700E003C75741371C22
:100F98000040154A136707F8A38AE740370720007F
:100FA80023A0E710938CCC0A93890980130C8C0B2F
:100FB80037C5030023A03C011305C56CEFF08FCDA6
:100FC8007D1A23203C0163110A0A938761D23EC42B
:100FD80085679387871A3EC6B7590200377A720029
:100FE800854C9389099F130A0A0EB7FD00E083A771
:100FF800C1C1638807108347040009476392E7105B
:101008002245194693058B1821322A8C631A050E3E
:1010180097F0FF1FE78080FE2AC0034DF400AA85E1
:1010280003460400324583461400EFF03F87056706
:10103800930787173EC2B306840183C5260012456D
:10104800050CEFF0BF851947E317ECFE29459932E7
:101058008347E40093F5F70F99CF8547638FF50C25
:10106800056513050521DDA837C503001305C56C03
:10107800EFF04FC235BF824705651305851CB3875E
:10108800A7413EC0EFF09F8118445844EFF07F839A
:101098002945EFF03F9002D61844032DC400096596
:1010A80041831305C5D4420D336DED00EFF08FBEBB
:1010B80082475947A380E4002306F102B2573D470F
:1010C80037C5898E2384E40093065002054761469C
:1010D800A685130565ED2387E400DCC86AD423A838
:1010E800A40197F0FF1FE780E0F383A641C0130730
:1010F800803E6396E6001307800C23A2E1C0B13C52
:10110800A93C03A781C083A641C0B307470191CA80
:10111800B307370163979601B7E716009387073639
:10112800BA9703A78D0083A601C1158FE3F1E7ECF9
:10113800CD32253423A401C045B5184883A7C1C0C2
:101148006311F70205651305C51DEFF02FF5EFF0E4
:101158004FF78305440105651305C51EEFF00FF42D
:1011680045B705651305C51FEFF01F8051BF000087
:101178003A25303278000000626565702100000071
:101188003A333A333A3300000000000053796E7462
:10119800687061737320696E697421205549440031
:1011A800525827642120525353493A256420504409
:1011B800553A2564206C656E3A2564204D414300FC
:1011C80042524F4144434153542070656572207523
:1011D8006964000050524F58207065657220756927
:1011E800640000002072785F727373693D25640A99
:1011F80000000000286E6F7420666F72206D6529EC
:101208002050524F58000000556E7265636F676E2C
:10121800697A656420747970652025640A00000085
:101228000102030405060708090A0C0D0E0F101128
:1012380012131415161718191A1B1C1D1E1F20210E
:081248002223242526000B27B8
:00000001FF
